{
  "contractName": "ADElection",
  "abi": [
    {
      "constant": true,
      "inputs": [
        {
          "name": "",
          "type": "address"
        }
      ],
      "name": "fakeVoters",
      "outputs": [
        {
          "name": "",
          "type": "uint256"
        }
      ],
      "payable": false,
      "stateMutability": "view",
      "type": "function"
    },
    {
      "constant": true,
      "inputs": [],
      "name": "ballotName",
      "outputs": [
        {
          "name": "",
          "type": "string"
        }
      ],
      "payable": false,
      "stateMutability": "view",
      "type": "function"
    },
    {
      "constant": true,
      "inputs": [
        {
          "name": "",
          "type": "uint256"
        }
      ],
      "name": "realVoterArray",
      "outputs": [
        {
          "name": "realVoterAddress",
          "type": "address"
        },
        {
          "name": "voted",
          "type": "bool"
        }
      ],
      "payable": false,
      "stateMutability": "view",
      "type": "function"
    },
    {
      "constant": true,
      "inputs": [],
      "name": "encryptionPubKey",
      "outputs": [
        {
          "name": "",
          "type": "bytes"
        }
      ],
      "payable": false,
      "stateMutability": "view",
      "type": "function"
    },
    {
      "constant": true,
      "inputs": [
        {
          "name": "",
          "type": "uint256"
        }
      ],
      "name": "votesArray",
      "outputs": [
        {
          "name": "commitNo",
          "type": "bytes32"
        }
      ],
      "payable": false,
      "stateMutability": "view",
      "type": "function"
    },
    {
      "constant": true,
      "inputs": [
        {
          "name": "",
          "type": "address"
        }
      ],
      "name": "realVoters",
      "outputs": [
        {
          "name": "",
          "type": "uint256"
        }
      ],
      "payable": false,
      "stateMutability": "view",
      "type": "function"
    },
    {
      "constant": true,
      "inputs": [],
      "name": "votesCount",
      "outputs": [
        {
          "name": "",
          "type": "uint256"
        }
      ],
      "payable": false,
      "stateMutability": "view",
      "type": "function"
    },
    {
      "constant": true,
      "inputs": [],
      "name": "owner",
      "outputs": [
        {
          "name": "",
          "type": "address"
        }
      ],
      "payable": false,
      "stateMutability": "view",
      "type": "function"
    },
    {
      "constant": true,
      "inputs": [],
      "name": "votersCount",
      "outputs": [
        {
          "name": "",
          "type": "uint256"
        }
      ],
      "payable": false,
      "stateMutability": "view",
      "type": "function"
    },
    {
      "constant": true,
      "inputs": [],
      "name": "voteProofs",
      "outputs": [
        {
          "name": "",
          "type": "uint256"
        }
      ],
      "payable": false,
      "stateMutability": "view",
      "type": "function"
    },
    {
      "constant": true,
      "inputs": [],
      "name": "shortName",
      "outputs": [
        {
          "name": "",
          "type": "string"
        }
      ],
      "payable": false,
      "stateMutability": "view",
      "type": "function"
    },
    {
      "constant": true,
      "inputs": [],
      "name": "zkVerifier",
      "outputs": [
        {
          "name": "",
          "type": "address"
        }
      ],
      "payable": false,
      "stateMutability": "view",
      "type": "function"
    },
    {
      "constant": true,
      "inputs": [
        {
          "name": "",
          "type": "address"
        }
      ],
      "name": "votes",
      "outputs": [
        {
          "name": "",
          "type": "uint256"
        }
      ],
      "payable": false,
      "stateMutability": "view",
      "type": "function"
    },
    {
      "constant": true,
      "inputs": [
        {
          "name": "",
          "type": "uint256"
        }
      ],
      "name": "fakeVoterArray",
      "outputs": [
        {
          "name": "fakeVoterAddress",
          "type": "address"
        },
        {
          "name": "pubKeyToRecover",
          "type": "bytes"
        },
        {
          "name": "pubKeyHash",
          "type": "bytes32"
        },
        {
          "name": "canVote",
          "type": "bool"
        },
        {
          "name": "voted",
          "type": "bool"
        }
      ],
      "payable": false,
      "stateMutability": "view",
      "type": "function"
    },
    {
      "constant": true,
      "inputs": [],
      "name": "typeOfElection",
      "outputs": [
        {
          "name": "",
          "type": "string"
        }
      ],
      "payable": false,
      "stateMutability": "view",
      "type": "function"
    },
    {
      "inputs": [
        {
          "name": "_ballotName",
          "type": "string"
        },
        {
          "name": "_encryptionPubKey",
          "type": "bytes"
        },
        {
          "name": "_zkVerifier",
          "type": "address"
        },
        {
          "name": "_ownerElection",
          "type": "address"
        }
      ],
      "payable": false,
      "stateMutability": "nonpayable",
      "type": "constructor"
    },
    {
      "constant": false,
      "inputs": [
        {
          "name": "_address",
          "type": "address"
        },
        {
          "name": "_pubKeyToRecover",
          "type": "bytes"
        },
        {
          "name": "_pubKeyHash",
          "type": "bytes32"
        }
      ],
      "name": "addFakeVoter",
      "outputs": [
        {
          "name": "",
          "type": "bool"
        }
      ],
      "payable": false,
      "stateMutability": "nonpayable",
      "type": "function"
    },
    {
      "constant": false,
      "inputs": [
        {
          "name": "answer1",
          "type": "bytes[]"
        },
        {
          "name": "answer2",
          "type": "bytes[]"
        },
        {
          "name": "answer3",
          "type": "bytes[]"
        },
        {
          "name": "newC",
          "type": "bytes32"
        }
      ],
      "name": "addVote",
      "outputs": [
        {
          "name": "",
          "type": "bool"
        }
      ],
      "payable": false,
      "stateMutability": "nonpayable",
      "type": "function"
    },
    {
      "constant": true,
      "inputs": [
        {
          "name": "index",
          "type": "uint256"
        }
      ],
      "name": "getVoteAnswers",
      "outputs": [
        {
          "name": "",
          "type": "bytes[]"
        },
        {
          "name": "",
          "type": "bytes[]"
        },
        {
          "name": "",
          "type": "bytes[]"
        }
      ],
      "payable": false,
      "stateMutability": "view",
      "type": "function"
    }
  ],
  "bytecode": "0x60806040523480156200001157600080fd5b5060405162001e1c38038062001e1c8339810180604052620000379190810190620002fd565b80600660006101000a81548173ffffffffffffffffffffffffffffffffffffffff021916908373ffffffffffffffffffffffffffffffffffffffff160217905550836008908051906020019062000090929190620000f5565b508260099080519060200190620000a99291906200017c565b5081600760006101000a81548173ffffffffffffffffffffffffffffffffffffffff021916908373ffffffffffffffffffffffffffffffffffffffff160217905550505050506200048d565b828054600181600116156101000203166002900490600052602060002090601f016020900481019282601f106200013857805160ff191683800117855562000169565b8280016001018555821562000169579182015b82811115620001685782518255916020019190600101906200014b565b5b50905062000178919062000203565b5090565b828054600181600116156101000203166002900490600052602060002090601f016020900481019282601f10620001bf57805160ff1916838001178555620001f0565b82800160010185558215620001f0579182015b82811115620001ef578251825591602001919060010190620001d2565b5b509050620001ff919062000203565b5090565b6200022891905b80821115620002245760008160009055506001016200020a565b5090565b90565b600062000239825162000443565b905092915050565b600082601f83011215156200025557600080fd5b81516200026c6200026682620003c9565b6200039b565b915080825260208301602083018583830111156200028957600080fd5b6200029683828462000457565b50505092915050565b600082601f8301121515620002b357600080fd5b8151620002ca620002c482620003f6565b6200039b565b91508082526020830160208301858383011115620002e757600080fd5b620002f483828462000457565b50505092915050565b600080600080608085870312156200031457600080fd5b600085015167ffffffffffffffff8111156200032f57600080fd5b6200033d878288016200029f565b945050602085015167ffffffffffffffff8111156200035b57600080fd5b620003698782880162000241565b93505060406200037c878288016200022b565b92505060606200038f878288016200022b565b91505092959194509250565b6000604051905081810181811067ffffffffffffffff82111715620003bf57600080fd5b8060405250919050565b600067ffffffffffffffff821115620003e157600080fd5b601f19601f8301169050602081019050919050565b600067ffffffffffffffff8211156200040e57600080fd5b601f19601f8301169050602081019050919050565b600073ffffffffffffffffffffffffffffffffffffffff82169050919050565b6000620004508262000423565b9050919050565b60005b83811015620004775780820151818401526020810190506200045a565b8381111562000487576000848401525b50505050565b61197f806200049d6000396000f3fe6080604052600436106100fc576000357c0100000000000000000000000000000000000000000000000000000000900463ffffffff168063199da442146101015780631b26586c1461013e5780635349330f1461016957806366a79308146101a757806374604f47146101e657806377a53e0a14610211578063870ff0d41461024e5780638778b27d1461028b5780638da5cb5b146102b657806398c07938146102e1578063a14c8d6b1461030c578063b03f38c314610349578063c835036214610374578063d6df096d1461039f578063d8bff5a5146103ca578063dea6e5ff14610407578063e580396c14610448578063fc422a5314610485575b600080fd5b34801561010d57600080fd5b5061012860048036036101239190810190611399565b6104b0565b6040516101359190611777565b60405180910390f35b34801561014a57600080fd5b506101536104c8565b6040516101609190611755565b60405180910390f35b34801561017557600080fd5b50610190600480360361018b91908101906114d4565b610566565b60405161019e92919061162e565b60405180910390f35b3480156101b357600080fd5b506101ce60048036036101c991908101906114d4565b6105c6565b6040516101dd939291906116b1565b60405180910390f35b3480156101f257600080fd5b506101fb6108e1565b6040516102089190611733565b60405180910390f35b34801561021d57600080fd5b50610238600480360361023391908101906114d4565b61097f565b6040516102459190611718565b60405180910390f35b34801561025a57600080fd5b5061027560048036036102709190810190611399565b6109ac565b6040516102829190611777565b60405180910390f35b34801561029757600080fd5b506102a06109c4565b6040516102ad9190611777565b60405180910390f35b3480156102c257600080fd5b506102cb6109ca565b6040516102d89190611613565b60405180910390f35b3480156102ed57600080fd5b506102f66109f0565b6040516103039190611777565b60405180910390f35b34801561031857600080fd5b50610333600480360361032e9190810190611429565b6109f6565b60405161034091906116fd565b60405180910390f35b34801561035557600080fd5b5061035e610c19565b60405161036b9190611777565b60405180910390f35b34801561038057600080fd5b50610389610c1f565b6040516103969190611755565b60405180910390f35b3480156103ab57600080fd5b506103b4610cbd565b6040516103c19190611613565b60405180910390f35b3480156103d657600080fd5b506103f160048036036103ec9190810190611399565b610ce3565b6040516103fe9190611777565b60405180910390f35b34801561041357600080fd5b5061042e600480360361042991908101906114d4565b610cfb565b60405161043f959493929190611657565b60405180910390f35b34801561045457600080fd5b5061046f600480360361046a91908101906113c2565b610e12565b60405161047c91906116fd565b60405180910390f35b34801561049157600080fd5b5061049a610fab565b6040516104a79190611755565b60405180910390f35b60036020528060005260406000206000915090505481565b60088054600181600116156101000203166002900480601f01602080910402602001604051908101604052809291908181526020018280546001816001161561010002031660029004801561055e5780601f106105335761010080835404028352916020019161055e565b820191906000526020600020905b81548152906001019060200180831161054157829003601f168201915b505050505081565b60018181548110151561057557fe5b90600052602060002090601b02016000915090508060000160009054906101000a900473ffffffffffffffffffffffffffffffffffffffff169080601a0160009054906101000a900460ff16905082565b60608060606002848154811015156105da57fe5b90600052602060002090600402016000016002858154811015156105fa57fe5b906000526020600020906004020160010160028681548110151561061a57fe5b906000526020600020906004020160020182805480602002602001604051908101604052809291908181526020016000905b82821015610708578382906000526020600020018054600181600116156101000203166002900480601f0160208091040260200160405190810160405280929190818152602001828054600181600116156101000203166002900480156106f45780601f106106c9576101008083540402835291602001916106f4565b820191906000526020600020905b8154815290600101906020018083116106d757829003601f168201915b50505050508152602001906001019061064c565b50505050925081805480602002602001604051908101604052809291908181526020016000905b828210156107eb578382906000526020600020018054600181600116156101000203166002900480601f0160208091040260200160405190810160405280929190818152602001828054600181600116156101000203166002900480156107d75780601f106107ac576101008083540402835291602001916107d7565b820191906000526020600020905b8154815290600101906020018083116107ba57829003601f168201915b50505050508152602001906001019061072f565b50505050915080805480602002602001604051908101604052809291908181526020016000905b828210156108ce578382906000526020600020018054600181600116156101000203166002900480601f0160208091040260200160405190810160405280929190818152602001828054600181600116156101000203166002900480156108ba5780601f1061088f576101008083540402835291602001916108ba565b820191906000526020600020905b81548152906001019060200180831161089d57829003601f168201915b505050505081526020019060010190610812565b5050505090509250925092509193909250565b60098054600181600116156101000203166002900480601f0160208091040260200160405190810160405280929190818152602001828054600181600116156101000203166002900480156109775780601f1061094c57610100808354040283529160200191610977565b820191906000526020600020905b81548152906001019060200180831161095a57829003601f168201915b505050505081565b60028181548110151561098e57fe5b90600052602060002090600402016000915090508060030154905081565b60046020528060005260406000206000915090505481565b600d5481565b600660009054906101000a900473ffffffffffffffffffffffffffffffffffffffff1681565b600c5481565b6000806000600360003373ffffffffffffffffffffffffffffffffffffffff1673ffffffffffffffffffffffffffffffffffffffff16815260200190815260200160002054815481101515610a4757fe5b906000526020600020906004020190508060030160019054906101000a900460ff1680610a8357508060030160009054906101000a900460ff16155b15610a92576000915050610c11565b610a9a611049565b600087511115610aae578681600001819052505b600086511115610ac2578581602001819052505b600085511115610ad6578481604001819052505b83816060018181525050600281908060018154018082558091505090600182039060005260206000209060040201600090919290919091506000820151816000019080519060200190610b2a929190611075565b506020820151816001019080519060200190610b47929190611075565b506040820151816002019080519060200190610b64929190611075565b5060608201518160030155505050600160028054905003600560003373ffffffffffffffffffffffffffffffffffffffff1673ffffffffffffffffffffffffffffffffffffffff16815260200190815260200160002081905550600d6000815480929190600101919050555060018260030160016101000a81548160ff02191690831515021790555060008260030160006101000a81548160ff0219169083151502179055506001925050505b949350505050565b600e5481565b600a8054600181600116156101000203166002900480601f016020809104026020016040519081016040528092919081815260200182805460018160011615610100020316600290048015610cb55780601f10610c8a57610100808354040283529160200191610cb5565b820191906000526020600020905b815481529060010190602001808311610c9857829003601f168201915b505050505081565b600760009054906101000a900473ffffffffffffffffffffffffffffffffffffffff1681565b60056020528060005260406000206000915090505481565b600081815481101515610d0a57fe5b90600052602060002090600402016000915090508060000160009054906101000a900473ffffffffffffffffffffffffffffffffffffffff1690806001018054600181600116156101000203166002900480601f016020809104026020016040519081016040528092919081815260200182805460018160011615610100020316600290048015610ddc5780601f10610db157610100808354040283529160200191610ddc565b820191906000526020600020905b815481529060010190602001808311610dbf57829003601f168201915b5050505050908060020154908060030160009054906101000a900460ff16908060030160019054906101000a900460ff16905085565b6000610e1c6110d5565b60a0604051908101604052808673ffffffffffffffffffffffffffffffffffffffff1681526020018581526020018481526020016001151581526020016000151581525090506000819080600181540180825580915050906001820390600052602060002090600402016000909192909190915060008201518160000160006101000a81548173ffffffffffffffffffffffffffffffffffffffff021916908373ffffffffffffffffffffffffffffffffffffffff1602179055506020820151816001019080519060200190610ef3929190611122565b506040820151816002015560608201518160030160006101000a81548160ff02191690831515021790555060808201518160030160016101000a81548160ff021916908315150217905550505050600160008054905003600360008773ffffffffffffffffffffffffffffffffffffffff1673ffffffffffffffffffffffffffffffffffffffff16815260200190815260200160002081905550600c6000815480929190600101919050555060019150509392505050565b600b8054600181600116156101000203166002900480601f0160208091040260200160405190810160405280929190818152602001828054600181600116156101000203166002900480156110415780601f1061101657610100808354040283529160200191611041565b820191906000526020600020905b81548152906001019060200180831161102457829003601f168201915b505050505081565b608060405190810160405280606081526020016060815260200160608152602001600080191681525090565b8280548282559060005260206000209081019282156110c4579160200282015b828111156110c35782518290805190602001906110b3929190611122565b5091602001919060010190611095565b5b5090506110d191906111a2565b5090565b60a060405190810160405280600073ffffffffffffffffffffffffffffffffffffffff16815260200160608152602001600080191681526020016000151581526020016000151581525090565b828054600181600116156101000203166002900490600052602060002090601f016020900481019282601f1061116357805160ff1916838001178555611191565b82800160010185558215611191579182015b82811115611190578251825591602001919060010190611175565b5b50905061119e91906111ce565b5090565b6111cb91905b808211156111c757600081816111be91906111f3565b506001016111a8565b5090565b90565b6111f091905b808211156111ec5760008160009055506001016111d4565b5090565b90565b50805460018160011615610100020316600290046000825580601f106112195750611238565b601f01602090049060005260206000209081019061123791906111ce565b5b50565b600061124782356118cc565b905092915050565b600082601f830112151561126257600080fd5b8135611275611270826117bf565b611792565b9150818183526020840193506020810190508360005b838110156112bb57813586016112a188826112d9565b84526020840193506020830192505060018101905061128b565b5050505092915050565b60006112d182356118de565b905092915050565b600082601f83011215156112ec57600080fd5b81356112ff6112fa826117e7565b611792565b9150808252602083016020830185838301111561131b57600080fd5b6113268382846118f2565b50505092915050565b600082601f830112151561134257600080fd5b813561135561135082611813565b611792565b9150808252602083016020830185838301111561137157600080fd5b61137c8382846118f2565b50505092915050565b600061139182356118e8565b905092915050565b6000602082840312156113ab57600080fd5b60006113b98482850161123b565b91505092915050565b6000806000606084860312156113d757600080fd5b60006113e58682870161123b565b935050602084013567ffffffffffffffff81111561140257600080fd5b61140e8682870161132f565b925050604061141f868287016112c5565b9150509250925092565b6000806000806080858703121561143f57600080fd5b600085013567ffffffffffffffff81111561145957600080fd5b6114658782880161124f565b945050602085013567ffffffffffffffff81111561148257600080fd5b61148e8782880161124f565b935050604085013567ffffffffffffffff8111156114ab57600080fd5b6114b78782880161124f565b92505060606114c8878288016112c5565b91505092959194509250565b6000602082840312156114e657600080fd5b60006114f484828501611385565b91505092915050565b6115068161187a565b82525050565b60006115178261184c565b808452602084019350836020820285016115308561183f565b60005b8481101561156957838303885261154b838351611598565b92506115568261186d565b9150602088019750600181019050611533565b508196508694505050505092915050565b6115838161188c565b82525050565b61159281611898565b82525050565b60006115a382611857565b8084526115b7816020860160208601611901565b6115c081611934565b602085010191505092915050565b60006115d982611862565b8084526115ed816020860160208601611901565b6115f681611934565b602085010191505092915050565b61160d816118c2565b82525050565b600060208201905061162860008301846114fd565b92915050565b600060408201905061164360008301856114fd565b611650602083018461157a565b9392505050565b600060a08201905061166c60008301886114fd565b818103602083015261167e8187611598565b905061168d6040830186611589565b61169a606083018561157a565b6116a7608083018461157a565b9695505050505050565b600060608201905081810360008301526116cb818661150c565b905081810360208301526116df818561150c565b905081810360408301526116f3818461150c565b9050949350505050565b6000602082019050611712600083018461157a565b92915050565b600060208201905061172d6000830184611589565b92915050565b6000602082019050818103600083015261174d8184611598565b905092915050565b6000602082019050818103600083015261176f81846115ce565b905092915050565b600060208201905061178c6000830184611604565b92915050565b6000604051905081810181811067ffffffffffffffff821117156117b557600080fd5b8060405250919050565b600067ffffffffffffffff8211156117d657600080fd5b602082029050602081019050919050565b600067ffffffffffffffff8211156117fe57600080fd5b601f19601f8301169050602081019050919050565b600067ffffffffffffffff82111561182a57600080fd5b601f19601f8301169050602081019050919050565b6000602082019050919050565b600081519050919050565b600081519050919050565b600081519050919050565b6000602082019050919050565b6000611885826118a2565b9050919050565b60008115159050919050565b6000819050919050565b600073ffffffffffffffffffffffffffffffffffffffff82169050919050565b6000819050919050565b60006118d7826118a2565b9050919050565b6000819050919050565b6000819050919050565b82818337600083830152505050565b60005b8381101561191f578082015181840152602081019050611904565b8381111561192e576000848401525b50505050565b6000601f19601f830116905091905056fea265627a7a72305820a2dacb6868bb65af1be866fd002605bd1df933569d21f3f3b74f99a912d9da0b6c6578706572696d656e74616cf50037",
  "source": "pragma solidity ^0.5.0;\r\npragma experimental ABIEncoderV2; // for bytes[]\r\n\r\ncontract ADElection {\r\n    \r\n    struct Votes {\r\n        bytes[] answersQuestion1;\r\n        bytes[] answersQuestion2;\r\n        bytes[] answersQuestion3; \r\n        bytes32 commitNo;\r\n    }\r\n    \r\n    struct RealVoter {\r\n        address realVoterAddress;\r\n        uint[2] a;\r\n        uint[2] a_p;\r\n        uint[2][2] b;\r\n        uint[2] b_p;\r\n        uint[2] c;\r\n        uint[2] c_p;\r\n        uint[2] h;\r\n        uint[2] k;\r\n        uint[7] input;\r\n        bool voted; \r\n    }\r\n    \r\n    struct FakeVoter {\r\n        address fakeVoterAddress;\r\n        bytes pubKeyToRecover;\r\n        bytes32 pubKeyHash;\r\n        bool canVote;\r\n        bool voted; \r\n    }\r\n    \r\n    FakeVoter[] public fakeVoterArray;\r\n    RealVoter[] public realVoterArray;\r\n    Votes[] public votesArray;\r\n    \r\n    mapping(address => uint) public fakeVoters;\r\n    mapping(address => uint) public realVoters;\r\n    mapping(address => uint) public votes;\r\n    \r\n    address public owner;\r\n    address public zkVerifier;\r\n    string public ballotName;\r\n    bytes public encryptionPubKey;\r\n    string public shortName; // for URL, Maybe\r\n    string public typeOfElection;\r\n    \r\n    \r\n    uint public votersCount;\r\n    uint public votesCount;\r\n    uint public voteProofs;\r\n    \r\n    modifier onlyOwner() {\r\n        require(msg.sender == owner, \"Only owner can call this function\");\r\n        _;\r\n    }\r\n    \r\n    constructor(string memory _ballotName, bytes memory _encryptionPubKey, address _zkVerifier, address _ownerElection) public {\r\n        owner = _ownerElection;\r\n        ballotName = _ballotName;\r\n        encryptionPubKey = _encryptionPubKey;\r\n        zkVerifier = _zkVerifier;\r\n    }\r\n    \r\n    function addFakeVoter(address _address, bytes memory _pubKeyToRecover, bytes32 _pubKeyHash) public returns(bool) {\r\n        // restrict to authorities\r\n        FakeVoter memory newFakeVoter = FakeVoter(_address, _pubKeyToRecover, _pubKeyHash, true, false);\r\n        fakeVoterArray.push(newFakeVoter);\r\n        \r\n        fakeVoters[_address] = fakeVoterArray.length - 1;\r\n        votersCount++;\r\n        \r\n        return true;\r\n    }\r\n    \r\n    function addVote(bytes[] memory answer1, bytes[] memory answer2, bytes[] memory answer3, bytes32 newC) public returns(bool) {\r\n        FakeVoter storage sender = fakeVoterArray[fakeVoters[msg.sender]];\r\n        \r\n        if(sender.voted || !sender.canVote)\r\n            return false;\r\n        \r\n        Votes memory newVote;\r\n        \r\n        if(answer1.length > 0) {\r\n            newVote.answersQuestion1 = answer1;\r\n        }\r\n        if(answer2.length > 0) {\r\n            newVote.answersQuestion2 = answer2;\r\n        } \r\n        if(answer3.length > 0) {\r\n            newVote.answersQuestion3 = answer3;\r\n        }\r\n        newVote.commitNo = newC; // ????\r\n        \r\n        votesArray.push(newVote);\r\n        votes[msg.sender] = votesArray.length - 1;\r\n        votesCount++;\r\n        \r\n        sender.voted = true;\r\n        sender.canVote = false;\r\n        \r\n        return true;\r\n    }\r\n    \r\n    function getVoteAnswers(uint index) view public returns(bytes[] memory, bytes[] memory, bytes[] memory) {\r\n        return (votesArray[index].answersQuestion1, \r\n                votesArray[index].answersQuestion2,\r\n                votesArray[index].answersQuestion3);\r\n    }\r\n}",
  "sourcePath": "D:\\Proiect licenta\\ETHVoting\\contracts\\ADElection.sol",
  "compiler": {
    "name": "solc",
    "version": "0.5.0+commit.1d4f565a.Emscripten.clang"
  },
  "schemaVersion": "3.0.23",
  "updatedAt": "2020-02-27T19:08:35.955Z",
  "networkType": "ethereum",
  "devdoc": {
    "methods": {}
  },
  "userdoc": {
    "methods": {}
  }
}